:020000040800F2
:10000000B0090020450100088B04000883040008A3
:1000100087040008CD0200089D0C000800000000C5
:1000200000000000000000000000000019090008A6
:10003000D10200080000000021080008050A00089D
:100040005F0100085F0100085F0100085F01000810
:100050005F0100085F0100085F0100085F01000800
:100060005F0100085F0100085F0100085F010008F0
:100070005F0100085F0100085F0100085F010008E0
:100080005F0100085F0100085F0100085F010008D0
:100090005F0100085F0100085F0100085F010008C0
:1000A0005F0100085F0100085F0100085F010008B0
:1000B0005F0100085F0100085F0100085F010008A0
:1000C0005F0100085F0100085F0100085F01000890
:1000D0005F010008690A00085F0100085F0100086D
:1000E0005F0100085F0100085F0100085F01000870
:1000F0005F0100085F0100085F0100085F01000860
:100100005F0100085F0100085F0100085F0100084F
:100110005F0100085F0100085F0100085F0100083F
:100120005F0100085F0100085F0100085F0100082F
:10013000DFF80CD000F0B8F8004800471D100008A8
:10014000B00900200648804706480047FEE7FEE762
:10015000FEE7FEE7FEE7FEE7FEE7FEE7FEE7FEE777
:10016000090A000831010008D2B201E000F8012BB1
:10017000491EFBD270470022F6E710B513460A4627
:1001800004461946FFF7F0FF204610BD80EA010241
:1001900010B502F00043400022D04A001FD0010EEB
:1001A00001EB1261C0F35600C2F3560240F40000A6
:1001B00042F40002A0FB022000047F39140400D0A6
:1001C000401C50EA124001D44000491EC2B20C0645
:1001D00004EBD010401C4008802A02D003E000202D
:1001E00010BD20F00100002900DA0020184310BDE6
:1001F00096230022114600F028B820F00040C10DDF
:10020000C0F3160040F400007F2901DA0020704797
:10021000962903DCC1F19601C840704796398840A1
:1002200070470000002801DBC0F10040002901DB1D
:10023000C1F10041884270470029A8BF7047401CA7
:10024000490008BF20F00100704710B4B0FA80FCEC
:1002500000FA0CF050EA010404BF10BC704749B129
:10026000CCF1200421FA04F411FA0CF118BF012199
:1002700021430843A3EB0C01CB1D4FEA00614FEA79
:10028000102042BF002010BC704700EBC350104448
:100290000029A4BF10BC7047401C490008BF20F0D3
:1002A000010010BC70470000064C074D06E0E068F6
:1002B00040F0010394E8070098471034AC42F6D3AD
:1002C000FFF73AFFE81700080818000800BFFEE72C
:1002D00070472DE9F041024600250026002000234A
:1002E0000024002791F803C00CF00F0591F803C01B
:1002F0000CF0100CBCF1000F03D091F802C04CEAD6
:10030000050591F800C0BCF1000F31D01468002041
:100310002BE04FF0010C0CFA00F3B1F800C00CEA2E
:1003200003069E4220D183004FF00F0C0CFA03F716
:10033000BC4305FA03FC4CEA040491F803C0BCF189
:10034000280F06D14FF0010C0CFA00FCC2F814C0C3
:100350000AE091F803C0BCF1480F05D14FF0010C41
:100360000CFA00FCC2F810C0401C0828D1D314605D
:10037000B1F800C0BCF1FF0F34DD546800202EE05E
:1003800000F1080C4FF0010808FA0CF3B1F800C0B6
:100390000CEA03069E4221D183004FF00F0C0CFAA9
:1003A00003F7BC4305FA03FC4CEA040491F803C0CC
:1003B000BCF1280F05D100F1080C08FA0CF8C2F8BE
:1003C000148091F803C0BCF1480F07D100F1080C6C
:1003D0004FF0010808FA0CF8C2F81080401C0828F9
:1003E000CED35460BDE8F081F0B50A460023002466
:1003F0000021002500F00046B6F1004F02D11D4E4D
:10040000F16901E01B4E7168C0F3034583B200F44B
:100410004016B6F5401F08D121F07061154E766880
:1004200026F07066134F7E6012E000F48016B6F579
:10043000801F06D1032606FA05F4A14341F070613E
:1004400006E0460D360103FA06F6B14341F070614D
:1004500022B1460D360103FA06F6314300F000469C
:10046000B6F1004F02D1034EF16101E0014E71601F
:10047000F0BD0000000001400AB1016100E04161EF
:10048000704700BFFEE700BFFEE7704770B5002170
:1004900000230F22C47804B3154C246804F4E064EC
:1004A000C4F5E064210AC1F10403CA40447804FAA7
:1004B00003F184781440214309010E4C0678A155BC
:1004C000047804F01F050124AC4005786D11AD00DF
:1004D00005F1E025C5F8004109E0047804F01F05A6
:1004E0000124AC40044D0678761145F8264070BDD5
:1004F0000CED00E000E400E080E100E0024901438F
:10050000024A1160704700000000FA050CED00E09F
:1005100070B500240EE00021204600F0F4F800251C
:1005200004E0002000F06CF9681CC5B2802DF8DBF7
:10053000601CC4B2082CEEDB70BD000008B50121C0
:10054000082000F06FF914208DF8030003208DF8C7
:1005500002004FF48070ADF8000069460A48FFF7CA
:10056000B8FE4FF40070ADF8000069460648FFF78A
:10057000B0FE012211020448FFF77EFF0122510262
:100580000148FFF779FF08BD000C014070B5054632
:10059000002419E080202041284008B1012000E01B
:1005A000002002464FF400710E48FFF765FF01225C
:1005B00011020C48FFF760FF00224FF480710948D8
:1005C000FFF75AFF601CC4B2082CE3DB01221102C2
:1005D0000448FFF751FF00224FF480710148FFF7F4
:1005E0004BFF70BD000C014010B5012251020A48BA
:1005F000FFF742FF012211020748FFF73DFF0022EB
:100600004FF400710448FFF737FF00224FF4807168
:100610000148FFF731FF10BD000C014010B500226A
:100620004FF400710648FFF727FF0122110204482A
:10063000FFF722FF012251020148FFF71DFF10BD05
:10064000000C014070B5002406E0002500E06D1CA0
:10065000B5F57A7FFBD3641CB4F57A7FF5D3FFF749
:100660006DFFAE2000F0BCF8D52000F0B9F8802076
:1006700000F0B6F8A82000F0B3F83F2000F0B0F882
:10068000D32000F0ADF8002000F0AAF8402000F0E0
:10069000A7F8A12000F0A4F8C82000F0A1F8DA2003
:1006A00000F09EF8122000F09BF8812000F098F8EE
:1006B000CF2000F095F8D92000F092F8F12000F05A
:1006C0008FF8DB2000F08CF8302000F089F8A420AF
:1006D00000F086F8A62000F083F88D2000F080F866
:1006E000142000F07DF8AF2000F07AF8FFF710FF3B
:1006F00070BD10B50246012000E050430B1EA1F171
:100700000101FAD110BD70B505460C4645F0B000A8
:1007100000F066F8102141EA141000F061F804F0CE
:100720000F0000F05DF870BD2DE9F04105460E4662
:100730001746721ED206110E6A1E5206100EFFF7E1
:10074000E2FF002409E0A7F12001134A02EB0111A6
:10075000085D00F055F8601CC4B2082CF3DB721E73
:10076000D206110E6A1E012303EB4202D0B2FFF73C
:10077000CAFF00240BE0A7F12001074A02EB011297
:1007800004F10801505C00F03BF8601CC4B2082C76
:10079000F1DBBDE8F0810000F81100082DE9F04719
:1007A00080460E4617461D46002415E0281B411EB4
:1007B0000A20FFF79EFFB7FBF0F00A21B0FBF1F231
:1007C00001FB120000F130093019C1B24A4640461F
:1007D000FFF7AAFF601CC4B2AC42E7DBBDE8F087BC
:1007E00010B50446FFF700FF7820FFF7CFFE00208A
:1007F000FFF7CCFE2046FFF7C9FEFFF70FFF10BD45
:1008000010B50446FFF7F0FE7820FFF7BFFE40204A
:10081000FFF7BCFE2046FFF7B9FEFFF7FFFE10BD55
:100820007047000029B1064A92690243044B9A615D
:1008300004E0034A92698243014B9A6170470000C9
:100840000010024030B500210022002400232D4D6D
:100850006D6805F00C0121B1042905D0082923D1C8
:1008600005E0294D056022E0274D05601FE0254D7C
:100870006D6805F47012234D6D6805F4803402250F
:1008800005EB92421CB9214D554305600BE01D4D0F
:100890006D6805F400351DB11C4D5543056002E03F
:1008A000194D5543056002E0174D056000BF00BFBC
:1008B000144D6D6805F0F0010909154D6B5C056874
:1008C000DD4045600F4D6D6805F4E061090A104D8B
:1008D0006B5C4568DD4085600A4D6D6805F46051CC
:1008E000C90A0B4D6B5C4568DD40C560054D6D6800
:1008F00005F44041890B074D6B5CC568B5FBF3F50A
:10090000056130BD0010024000127A0000093D0070
:100910001800002028000020704710B500F002F8F1
:1009200010BD00000CB50020019000903348006815
:1009300040F480303149086000BF3048006800F45E
:10094000003000900198401C0190009818B901985F
:10095000B0F5A06FF1D12948006800F4003010B163
:100960000120009001E0002000900098012843D170
:100970002348006840F010002149086008460068DC
:1009800020F0030008600846006840F0020008609C
:100990001A48406819494860084640684860084657
:1009A000406840F4806048600846406820F47C104D
:1009B00048600846406840F4E8104860084600680F
:1009C00040F08070086000BF0C48006800F00070C4
:1009D0000028F9D00948406820F003000749486022
:1009E0000846406840F00200486000BF0348406885
:1009F00000F00C000828F9D10CBD000000100240E6
:100A0000002002407047000010B51348006840F015
:100A100001001149086008464068104908400E4925
:100A20004860084600680E4908400B4908600846BF
:100A3000006820F4802008600846406820F4FE002A
:100A400048604FF41F008860FFF767FF4FF00060B9
:100A50000449086010BD0000001002400000FFF8CB
:100A6000FFFFF6FE08ED00E008B50020009040F220
:100A700025511B4800F057F858B11949091D09883C
:100A8000C8B200F087FA40F22551154800F030F85E
:100A900025E040F22441124800F045F8F8B1104832
:100AA00000880F48001D008800F09AFA0D49087070
:100AB000002000900AE000F04DFA0B49BDF800203C
:100AC0008854BDF80000401C80B20090BDF80000C2
:100AD000044909788842EEDB01200449087008BD0A
:100AE00000380140010000202C0000200000002000
:100AF00010B50022002340F66A14A14200D100BFC5
:100B00000A1201249440A3B2DC43048010BD21B139
:100B1000828942F40052828104E082894DF6FF739B
:100B20001A408281704770B50246002400230025D8
:100B3000002040F66A16B14200D100BFC1F3421551
:100B400001F01F03012606FA03F3012D02D1968955
:100B5000334006E0022D02D1168A334001E0968A26
:100B600033400C12012606FA04F41688344013B1FF
:100B70000CB1012000E0002070BDF0B50346002458
:100B800000260025002040F66A17B94200D100BFB8
:100B90001846C1F3421401F01F06012707FA06F5B3
:100BA000012C01D10C3004E0022C01D1103000E006
:100BB00014301AB107682F43076002E00768AF439B
:100BC0000760F0BD2DE9F04786B005460E460024CB
:100BD000A24600BFA1460027B08900B100BF2F4642
:100BE0002C8A4CF6FF700440F08804432C82AC89B8
:100BF0004EF6F3100440B0883189084371890843E8
:100C00000443AC81AC8A4FF6FF400440B0890443F2
:100C1000AC8201A8FFF716FE1F48874202D1DDF81B
:100C200010A001E0DDF80CA0A88900F4004040B15C
:100C30000AEBCA0000EB0A1031684900B0FBF1F87A
:100C400007E00AEBCA0000EB0A1031688900B0FB2C
:100C5000F1F86420B8FBF0F004012009642101FBE5
:100C60001089A88900F4004040B1322000EBC9008F
:100C7000B0FBF1F000F00700044308E0322000EB85
:100C800009106421B0FBF1F000F00F0004432C8147
:100C900006B0BDE8F08700000038014000BFFEE765
:100CA0007FB505460C46002000900190029003900D
:100CB0008DF80050152C66D2DFE804F00B0F1317E7
:100CC0001B1F23272B2F33373B3F43474B4F535794
:100CD0005E001F208DF8010056E020208DF80100F5
:100CE00052E021208DF801004EE022208DF8010015
:100CF0004AE024208DF8010046E026208DF801000E
:100D000042E027208DF801003EE029208DF8010007
:100D10003AE030208DF8010036E031208DF80100F6
:100D200032E032208DF801002EE033208DF80100F2
:100D30002AE034208DF8010026E035208DF80100EE
:100D400022E036208DF801001EE037208DF80100EA
:100D50001AE039208DF8010016E03A208DF80100E4
:100D600012E03B208DF801000EE042208DF80100DA
:100D70006C208DF8020007E043208DF801007A20F6
:100D80008DF8020000E000BF00BF132C07DB6B20D2
:100D90008DF803000421684600F0CAF906E06B20D4
:100DA0008DF802000321684600F0C2F97FBD000003
:100DB0002DE9F04105460E46002400270AE00120F7
:100DC00000F098F8781C87B2642F03DD00200D49ED
:100DD000087003E00C4800780028F0D000BF002025
:100DE00009490870074800783070002404E007487B
:100DF000005D2855601C84B2024800788442F6DB0E
:100E0000BDE8F08101000020000000202C0000203F
:100E10002DE9FF5F05460E4614461F46DDF8389063
:100E20000020009001900290039080461C493846B3
:100E3000FFF7ACF983460021FFF7F4F904D2184913
:100E40003846FFF7A3F905E015493846FFF79EF944
:100E500080F000408246FFF7D0F91FFA80F88DF845
:100E60000050F6208DF801008DF8026020128DF8F8
:100E70000300E0B28DF804004FEA28208DF8050049
:100E800008F0FF008DF806008DF807906B208DF8B4
:100E900008000921684600F04BF9BDE8FF9F0000FB
:100EA0000000204102E008C8121F08C1002AFAD140
:100EB00070477047002001E001C1121F002AFBD1DA
:100EC000704710B500F002F900F004F800F046F9A0
:100ED00010BD000010B501210D20FFF7A3FC01217A
:100EE0008803FFF79FFC01210148FFF77DFA10BD41
:100EF0000002300008B5002100916FF07F414FF0F3
:100F0000E0225161002191610521116114E000216D
:100F10004FF0E02291610E4909684FF47A72B1FBFB
:100F2000F2F1C1F18071009100BF4FF0E0218969B9
:100F3000009A9142F9D8401E0028E8DC4FF0E021E9
:100F4000096921F001014FF0E022116108BD0000A4
:100F50000400002000B5002200F034F808B10020A1
:100F600000BD0B4890F80101094931F810200846EE
:100F700090F80101401C81F80101084690F8010138
:100F8000802802DB002081F801011046E8E700001C
:100F9000AC0000200A4991F80011094A22F811001A
:100FA000114691F80011491C82F80011114691F880
:100FB0000011802902DB002182F800117047000037
:100FC000AC000020054890F80101044991F8001197
:100FD000884201D1012070470020FCE7AC000020CE
:100FE0000D4890F801010C4991F80011884208DC85
:100FF000094890F80001084991F80111401A80B29F
:101000007047054890F80101C0F18000024991F84D
:101010000011084480B2F3E7AC000020A2B0FFF753
:1010200050FFFFF70FFB802102A8FFF7A4F8002074
:101030000190002445E00020224B4FF47A720146D3
:1010400000900220FFF7E4FE0E210220FFF728FEA9
:1010500001A902A8FFF7ACFE9DF8080001282DD1D8
:101060009DF80900362829D19DF80400082825D1CB
:101070009DF80B1009069DF80C2041EA02419DF8ED
:101080000D2041EA02219DF80E2041EA0200FFF7FF
:10109000AFF804460C492046FFF778F804469DF85F
:1010A0000A0008B184F000442046FFF7A6F8054680
:1010B00004232A4601210846FFF770FB3220FFF780
:1010C00019FFB8E70000C842CDCCCC3D08B54FF4BD
:1010D0004070FFF713FA01208DF8030000208DF80F
:1010E00002008DF8010025208DF800006846FFF70A
:1010F000CDF908BD08B500210091C0F308010B4AE5
:1011000011800AE0BDF80010491C89B20091BDF8B9
:101110000010B1F5FA5F00DD08BD0449091F098818
:1011200001F080010029EDD000BFF5E7043801404F
:1011300038B504460D4600200090009009E09DF867
:101140000010605CFFF7D6FF9DF80000401CC0B2A5
:1011500000909DF80000A842F1DB38BD00B585B0D5
:101160004FF40070ADF8100003208DF81200182025
:101170008DF8130004A91E48FFF7ABF84FF4806008
:10118000ADF8100048208DF8130004A91848FFF7A7
:10119000A0F84FF4E13000900020ADF80400ADF865
:1011A0000600ADF80800ADF80C000C20ADF80A0000
:1011B00069461048FFF706FD0E4800880D48001DDF
:1011C000008840F225510B48FFF792FC012240F2C3
:1011D00025510848FFF7D1FC012240F2244105487F
:1011E000FFF7CBFC01210348FFF791FC05B000BDE0
:1011F000000801400038014000000000000000002D
:101200000000000000000000000000F800000000E6
:10121000000000333000000000100C06100C060027
:10122000000000000000000040C07840C07840008E
:10123000043F04043F040400007088FC08300000F0
:10124000001820FF211E0000F008F000E018000048
:1012500000211C031E211E0000F008887000000001
:101260001E2123241927211010160E000000000053
:101270000000000000000000000000E01804020070
:10128000000000071820400000020418E0000000E1
:101290000040201807000000404080F080404000DF
:1012A0000202010F01020200000000F00000000035
:1012B0000101011F01010100000000000000000009
:1012C00080B070000000000000000000000000007E
:1012D0000001010101010101000000000000000007
:1012E00000303000000000000000000080601804A2
:1012F000006018060100000000E010080810E0007F
:10130000000F102020100F00001010F80000000047
:101310000020203F2020000000700808088870008E
:10132000003028242221300000300888884830000E
:101330000018202020110E000000C02010F800002E
:1013400000070424243F240000F8088888080800C7
:101350000019212020110E0000E0108888180000DC
:10136000000F112020110E0000380808C8380800AE
:101370000000003F0000000000708808088870002E
:10138000001C222121221C0000E010080810E000AF
:101390000000312222110F00000000C0C000000038
:1013A000000000303000000000000080000000005D
:1013B0000000806000000000000080402010080055
:1013C000000102040810200040404040404040001E
:1013D00004040404040404000008102040800000F9
:1013E0000020100804020100007048080808F000FE
:1013F0000000003036010000C030C828E810E000CE
:101400000718272423140B000000C038E000000058
:10141000203C23020227382008F8888888700000C2
:10142000203F202020110E00C03008080808380096
:10143000071820202010080008F808080810E0000D
:10144000203F202020100F0008F88888E8081000AE
:10145000203F20202320180008F88888E808100082
:10146000203F200003000000C030080808380000BA
:1014700007182020221E020008F808000008F808BB
:10148000203F210101213F20000808F80808000042
:101490000020203F2020000000000808F808080075
:1014A000C08080807F00000008F888C028180800ED
:1014B000203F20012638200008F808000000000026
:1014C000203F20202020300008F8F800F8F808001D
:1014D000203F003F003F200008F830C00008F80817
:1014E000203F200007183F00E01008080810E00027
:1014F0000F10202020100F0008F808080808F0003E
:10150000203F210101010000E01008080810E00060
:101510000F18242438504F0008F8888888887000F5
:10152000203F2000030C3020007088080808380095
:101530000038202121221C00180808F8080818008B
:101540000000203F2000000008F808000008F8080C
:10155000001F202020201F000878880000C83808BD
:10156000000007380E010000F80800F80008F80035
:10157000033C0700073C03000818688080681808CF
:1015800020302C03032C30200838C800C83808004D
:101590000000203F2000000010080808C83808009C
:1015A0002038262120201800000000FE0202020040
:1015B0000000007F40404000000C30C000000000F0
:1015C000000000010638C00000020202FE00000018
:1015D000004040407F0000000000040202020400BE
:1015E00000000000000000000000000000000000FB
:1015F00080808080808080800002020400000000E3
:1016000000000000000000000000808080800000DA
:101610000019242222223F2008F8008080000000C8
:10162000003F112020110E0000000080808000008B
:10163000000E112020201100000000808088F8009A
:10164000000E112020103F200000808080800000CC
:10165000001F222222221300008080F08888881830
:101660000020203F2020000000008080808080003B
:10167000006B94949493600008F8008080800000D0
:10168000203F210000203F200080989800000000AB
:101690000020203F202000000000008098980000DB
:1016A00000C08080807F000008F8000080808000FB
:1016B000203F24022D302000000808F80000000020
:1016C0000020203F202000008080808080808000DB
:1016D000203F20003F20003F80800080808000006D
:1016E000203F210000203F200000808080800000FB
:1016F000001F202020201F0080800080800000002C
:1017000080FFA12020110E0000000080808080005A
:10171000000E112020A0FF8080808000808080004B
:1017200020203F2120000100000080808080800078
:101730000033242424241900008080E080800000ED
:101740000000001F2020000080800000008080003A
:10175000001F202020103F2080808000008080809B
:1017600000010E300806010080800080008080802B
:101770000F300C030C300F00008080008080800050
:101780000020312E0E31200080808000008080807B
:1017900080818E701806010000808080808080002B
:1017A0000021302C2221300000000000807C020249
:1017B00000000000003F404000000000FF0000006B
:1017C00000000000FF0000000002027C800000001A
:1017D0000040403F00000000000601010202040436
:1017E00000000000000000000818000800000020B1
:1017F0002C000000A40E0008341800082C00002063
:1018000084090000B40E00080000000000A24A0491
:1018100000000000000000000102030406070809A0
:101820000000000001020304010203040607080986
:0418300002040608A0
:0400000508000131BD
:00000001FF
